{"abi":[{"type":"constructor","inputs":[{"name":"_priceWei","type":"uint256","internalType":"uint256"},{"name":"_cap","type":"uint256","internalType":"uint256"},{"name":"_goal","type":"uint256","internalType":"uint256"},{"name":"_open","type":"uint64","internalType":"uint64"},{"name":"_close","type":"uint64","internalType":"uint64"},{"name":"_treasury","type":"address","internalType":"address"},{"name":"_token","type":"address","internalType":"contract Mala"}],"stateMutability":"nonpayable"},{"type":"function","name":"buyTokens","inputs":[],"outputs":[],"stateMutability":"payable"},{"type":"function","name":"cap","inputs":[],"outputs":[{"name":"","type":"uint256","internalType":"uint256"}],"stateMutability":"view"},{"type":"function","name":"claimRefund","inputs":[],"outputs":[],"stateMutability":"nonpayable"},{"type":"function","name":"closingTime","inputs":[],"outputs":[{"name":"","type":"uint64","internalType":"uint64"}],"stateMutability":"view"},{"type":"function","name":"contributions","inputs":[{"name":"","type":"address","internalType":"address"}],"outputs":[{"name":"","type":"uint256","internalType":"uint256"}],"stateMutability":"view"},{"type":"function","name":"finalise","inputs":[],"outputs":[],"stateMutability":"nonpayable"},{"type":"function","name":"finalised","inputs":[],"outputs":[{"name":"","type":"bool","internalType":"bool"}],"stateMutability":"view"},{"type":"function","name":"goal","inputs":[],"outputs":[{"name":"","type":"uint256","internalType":"uint256"}],"stateMutability":"view"},{"type":"function","name":"openingTime","inputs":[],"outputs":[{"name":"","type":"uint64","internalType":"uint64"}],"stateMutability":"view"},{"type":"function","name":"owner","inputs":[],"outputs":[{"name":"","type":"address","internalType":"address"}],"stateMutability":"view"},{"type":"function","name":"priceWei","inputs":[],"outputs":[{"name":"","type":"uint256","internalType":"uint256"}],"stateMutability":"view"},{"type":"function","name":"renounceOwnership","inputs":[],"outputs":[],"stateMutability":"nonpayable"},{"type":"function","name":"saleOpen","inputs":[],"outputs":[{"name":"","type":"bool","internalType":"bool"}],"stateMutability":"view"},{"type":"function","name":"token","inputs":[],"outputs":[{"name":"","type":"address","internalType":"contract Mala"}],"stateMutability":"view"},{"type":"function","name":"transferOwnership","inputs":[{"name":"newOwner","type":"address","internalType":"address"}],"outputs":[],"stateMutability":"nonpayable"},{"type":"function","name":"weiRaised","inputs":[],"outputs":[{"name":"","type":"uint256","internalType":"uint256"}],"stateMutability":"view"},{"type":"event","name":"CrowdsaleFinalised","inputs":[{"name":"goalReached","type":"bool","indexed":false,"internalType":"bool"},{"name":"weiRaised","type":"uint256","indexed":false,"internalType":"uint256"}],"anonymous":false},{"type":"event","name":"OwnershipTransferred","inputs":[{"name":"previousOwner","type":"address","indexed":true,"internalType":"address"},{"name":"newOwner","type":"address","indexed":true,"internalType":"address"}],"anonymous":false},{"type":"event","name":"RefundClaimed","inputs":[{"name":"buyer","type":"address","indexed":true,"internalType":"address"},{"name":"weiValue","type":"uint256","indexed":false,"internalType":"uint256"}],"anonymous":false},{"type":"event","name":"TokensPurchased","inputs":[{"name":"buyer","type":"address","indexed":true,"internalType":"address"},{"name":"weiSent","type":"uint256","indexed":false,"internalType":"uint256"},{"name":"amount","type":"uint256","indexed":false,"internalType":"uint256"}],"anonymous":false},{"type":"error","name":"OwnableInvalidOwner","inputs":[{"name":"owner","type":"address","internalType":"address"}]},{"type":"error","name":"OwnableUnauthorizedAccount","inputs":[{"name":"account","type":"address","internalType":"address"}]},{"type":"error","name":"ReentrancyGuardReentrantCall","inputs":[]}],"bytecode":{"object":"0x610140604052348015610010575f5ffd5b5060405161196a38038061196a83398181016040528101906100329190610364565b815f73ffffffffffffffffffffffffffffffffffffffff168173ffffffffffffffffffffffffffffffffffffffff16036100a3575f6040517f1e4fbdf700000000000000000000000000000000000000000000000000000000815260040161009a9190610410565b60405180910390fd5b6100b28161019a60201b60201c565b50600180819055505f871180156100c95750858511155b610108576040517f08c379a00000000000000000000000000000000000000000000000000000000081526004016100ff90610483565b60405180910390fd5b86608081815250508560a081815250508460c081815250508367ffffffffffffffff1660e08167ffffffffffffffff16815250508267ffffffffffffffff166101008167ffffffffffffffff16815250508073ffffffffffffffffffffffffffffffffffffffff166101208173ffffffffffffffffffffffffffffffffffffffff1681525050505050505050506104a1565b5f5f5f9054906101000a900473ffffffffffffffffffffffffffffffffffffffff169050815f5f6101000a81548173ffffffffffffffffffffffffffffffffffffffff021916908373ffffffffffffffffffffffffffffffffffffffff1602179055508173ffffffffffffffffffffffffffffffffffffffff168173ffffffffffffffffffffffffffffffffffffffff167f8be0079c531659141344cd1fd0a4f28419497f9722a3daafe3b4186f6b6457e060405160405180910390a35050565b5f5ffd5b5f819050919050565b6102718161025f565b811461027b575f5ffd5b50565b5f8151905061028c81610268565b92915050565b5f67ffffffffffffffff82169050919050565b6102ae81610292565b81146102b8575f5ffd5b50565b5f815190506102c9816102a5565b92915050565b5f73ffffffffffffffffffffffffffffffffffffffff82169050919050565b5f6102f8826102cf565b9050919050565b610308816102ee565b8114610312575f5ffd5b50565b5f81519050610323816102ff565b92915050565b5f610333826102ee565b9050919050565b61034381610329565b811461034d575f5ffd5b50565b5f8151905061035e8161033a565b92915050565b5f5f5f5f5f5f5f60e0888a03121561037f5761037e61025b565b5b5f61038c8a828b0161027e565b975050602061039d8a828b0161027e565b96505060406103ae8a828b0161027e565b95505060606103bf8a828b016102bb565b94505060806103d08a828b016102bb565b93505060a06103e18a828b01610315565b92505060c06103f28a828b01610350565b91505092959891949750929550565b61040a816102ee565b82525050565b5f6020820190506104235f830184610401565b92915050565b5f82825260208201905092915050565b7f62616420706172616d73000000000000000000000000000000000000000000005f82015250565b5f61046d600a83610429565b915061047882610439565b602082019050919050565b5f6020820190508181035f83015261049a81610461565b9050919050565b60805160a05160c05160e05161010051610120516114356105355f395f8181610a760152610bf001525f81816103c10152818161045501528181610491015261089101525f81816104200152818161080c015261085c01525f818161038201528181610567015261064501525f818161035e01526108ff01525f81816108300152818161097001526109dd01526114355ff3fe6080604052600436106100f2575f3560e01c806399288dbb11610089578063b7ec208611610058578063b7ec2086146102c4578063d0febe4c146102ee578063f2fde38b146102f8578063fc0c546a14610320576100f2565b806399288dbb14610244578063a43992631461026e578063b5545a3c14610284578063b7a8807c1461029a576100f2565b806342e94c90116100c557806342e94c901461019e5780634b6753bc146101da578063715018a6146102045780638da5cb5b1461021a576100f2565b8063214bb60f146100f6578063355274ea14610120578063401938831461014a5780634042b66f14610174575b5f5ffd5b348015610101575f5ffd5b5061010a61034a565b6040516101179190610dca565b60405180910390f35b34801561012b575f5ffd5b5061013461035c565b6040516101419190610dfb565b60405180910390f35b348015610155575f5ffd5b5061015e610380565b60405161016b9190610dfb565b60405180910390f35b34801561017f575f5ffd5b506101886103a4565b6040516101959190610dfb565b60405180910390f35b3480156101a9575f5ffd5b506101c460048036038101906101bf9190610e72565b6103aa565b6040516101d19190610dfb565b60405180910390f35b3480156101e5575f5ffd5b506101ee6103bf565b6040516101fb9190610ebf565b60405180910390f35b34801561020f575f5ffd5b506102186103e3565b005b348015610225575f5ffd5b5061022e6103f6565b60405161023b9190610ee7565b60405180910390f35b34801561024f575f5ffd5b5061025861041d565b6040516102659190610dca565b60405180910390f35b348015610279575f5ffd5b50610282610487565b005b34801561028f575f5ffd5b50610298610625565b005b3480156102a5575f5ffd5b506102ae61080a565b6040516102bb9190610ebf565b60405180910390f35b3480156102cf575f5ffd5b506102d861082e565b6040516102e59190610dfb565b60405180910390f35b6102f6610852565b005b348015610303575f5ffd5b5061031e60048036038101906103199190610e72565b610b6a565b005b34801561032b575f5ffd5b50610334610bee565b6040516103419190610f5b565b60405180910390f35b60045f9054906101000a900460ff1681565b7f000000000000000000000000000000000000000000000000000000000000000081565b7f000000000000000000000000000000000000000000000000000000000000000081565b60025481565b6003602052805f5260405f205f915090505481565b7f000000000000000000000000000000000000000000000000000000000000000081565b6103eb610c12565b6103f45f610c99565b565b5f5f5f9054906101000a900473ffffffffffffffffffffffffffffffffffffffff16905090565b5f7f000000000000000000000000000000000000000000000000000000000000000067ffffffffffffffff16421015801561048257507f000000000000000000000000000000000000000000000000000000000000000067ffffffffffffffff164211155b905090565b61048f610d5a565b7f000000000000000000000000000000000000000000000000000000000000000067ffffffffffffffff1642116104fb576040517f08c379a00000000000000000000000000000000000000000000000000000000081526004016104f290610fce565b60405180910390fd5b60045f9054906101000a900460ff161561054a576040517f08c379a000000000000000000000000000000000000000000000000000000000815260040161054190611036565b60405180910390fd5b600160045f6101000a81548160ff0219169083151502179055505f7f00000000000000000000000000000000000000000000000000000000000000006002541015905080156105df5761059b6103f6565b73ffffffffffffffffffffffffffffffffffffffff166108fc4790811502906040515f60405180830381858888f193505050501580156105dd573d5f5f3e3d5ffd5b505b7f4d527a037594d7e3410ff997356d0c260c9632fef552ace24f74c1a5482900c781600254604051610612929190611054565b60405180910390a150610623610da0565b565b61062d610d5a565b60045f9054906101000a900460ff16801561066957507f0000000000000000000000000000000000000000000000000000000000000000600254105b6106a8576040517f08c379a000000000000000000000000000000000000000000000000000000000815260040161069f906110c5565b60405180910390fd5b5f60035f3373ffffffffffffffffffffffffffffffffffffffff1673ffffffffffffffffffffffffffffffffffffffff1681526020019081526020015f205490505f811161072b576040517f08c379a00000000000000000000000000000000000000000000000000000000081526004016107229061112d565b60405180910390fd5b5f60035f3373ffffffffffffffffffffffffffffffffffffffff1673ffffffffffffffffffffffffffffffffffffffff1681526020019081526020015f20819055503373ffffffffffffffffffffffffffffffffffffffff166108fc8290811502906040515f60405180830381858888f193505050501580156107b0573d5f5f3e3d5ffd5b503373ffffffffffffffffffffffffffffffffffffffff167f358fe4192934d3bf28ae181feda1f4bd08ca67f5e2fad55582cce5eb67304ae9826040516107f79190610dfb565b60405180910390a250610808610da0565b565b7f000000000000000000000000000000000000000000000000000000000000000081565b7f000000000000000000000000000000000000000000000000000000000000000081565b61085a610d5a565b7f000000000000000000000000000000000000000000000000000000000000000067ffffffffffffffff1642101580156108be57507f000000000000000000000000000000000000000000000000000000000000000067ffffffffffffffff164211155b6108fd576040517f08c379a00000000000000000000000000000000000000000000000000000000081526004016108f490611195565b60405180910390fd5b7f00000000000000000000000000000000000000000000000000000000000000003460025461092c91906111e0565b111561096d576040517f08c379a00000000000000000000000000000000000000000000000000000000081526004016109649061125d565b60405180910390fd5b5f7f00000000000000000000000000000000000000000000000000000000000000003461099a91906112a8565b146109da576040517f08c379a00000000000000000000000000000000000000000000000000000000081526004016109d190611322565b60405180910390fd5b5f7f000000000000000000000000000000000000000000000000000000000000000034610a079190611340565b90503460025f828254610a1a91906111e0565b925050819055503460035f3373ffffffffffffffffffffffffffffffffffffffff1673ffffffffffffffffffffffffffffffffffffffff1681526020019081526020015f205f828254610a6d91906111e0565b925050819055507f000000000000000000000000000000000000000000000000000000000000000073ffffffffffffffffffffffffffffffffffffffff166340c10f1933670de0b6b3a764000084610ac59190611370565b6040518363ffffffff1660e01b8152600401610ae29291906113b1565b5f604051808303815f87803b158015610af9575f5ffd5b505af1158015610b0b573d5f5f3e3d5ffd5b505050503373ffffffffffffffffffffffffffffffffffffffff167f8fafebcaf9d154343dad25669bfa277f4fbacd7ac6b0c4fed522580e040a0f333483604051610b579291906113d8565b60405180910390a250610b68610da0565b565b610b72610c12565b5f73ffffffffffffffffffffffffffffffffffffffff168173ffffffffffffffffffffffffffffffffffffffff1603610be2575f6040517f1e4fbdf7000000000000000000000000000000000000000000000000000000008152600401610bd99190610ee7565b60405180910390fd5b610beb81610c99565b50565b7f000000000000000000000000000000000000000000000000000000000000000081565b610c1a610da9565b73ffffffffffffffffffffffffffffffffffffffff16610c386103f6565b73ffffffffffffffffffffffffffffffffffffffff1614610c9757610c5b610da9565b6040517f118cdaa7000000000000000000000000000000000000000000000000000000008152600401610c8e9190610ee7565b60405180910390fd5b565b5f5f5f9054906101000a900473ffffffffffffffffffffffffffffffffffffffff169050815f5f6101000a81548173ffffffffffffffffffffffffffffffffffffffff021916908373ffffffffffffffffffffffffffffffffffffffff1602179055508173ffffffffffffffffffffffffffffffffffffffff168173ffffffffffffffffffffffffffffffffffffffff167f8be0079c531659141344cd1fd0a4f28419497f9722a3daafe3b4186f6b6457e060405160405180910390a35050565b600260015403610d96576040517f3ee5aeb500000000000000000000000000000000000000000000000000000000815260040160405180910390fd5b6002600181905550565b60018081905550565b5f33905090565b5f8115159050919050565b610dc481610db0565b82525050565b5f602082019050610ddd5f830184610dbb565b92915050565b5f819050919050565b610df581610de3565b82525050565b5f602082019050610e0e5f830184610dec565b92915050565b5f5ffd5b5f73ffffffffffffffffffffffffffffffffffffffff82169050919050565b5f610e4182610e18565b9050919050565b610e5181610e37565b8114610e5b575f5ffd5b50565b5f81359050610e6c81610e48565b92915050565b5f60208284031215610e8757610e86610e14565b5b5f610e9484828501610e5e565b91505092915050565b5f67ffffffffffffffff82169050919050565b610eb981610e9d565b82525050565b5f602082019050610ed25f830184610eb0565b92915050565b610ee181610e37565b82525050565b5f602082019050610efa5f830184610ed8565b92915050565b5f819050919050565b5f610f23610f1e610f1984610e18565b610f00565b610e18565b9050919050565b5f610f3482610f09565b9050919050565b5f610f4582610f2a565b9050919050565b610f5581610f3b565b82525050565b5f602082019050610f6e5f830184610f4c565b92915050565b5f82825260208201905092915050565b7f6e6f7420636c6f736564000000000000000000000000000000000000000000005f82015250565b5f610fb8600a83610f74565b9150610fc382610f84565b602082019050919050565b5f6020820190508181035f830152610fe581610fac565b9050919050565b7f616c7265616479000000000000000000000000000000000000000000000000005f82015250565b5f611020600783610f74565b915061102b82610fec565b602082019050919050565b5f6020820190508181035f83015261104d81611014565b9050919050565b5f6040820190506110675f830185610dbb565b6110746020830184610dec565b9392505050565b7f6e6f20726566756e6400000000000000000000000000000000000000000000005f82015250565b5f6110af600983610f74565b91506110ba8261107b565b602082019050919050565b5f6020820190508181035f8301526110dc816110a3565b9050919050565b7f7a65726f000000000000000000000000000000000000000000000000000000005f82015250565b5f611117600483610f74565b9150611122826110e3565b602082019050919050565b5f6020820190508181035f8301526111448161110b565b9050919050565b7f73616c6520636c6f7365640000000000000000000000000000000000000000005f82015250565b5f61117f600b83610f74565b915061118a8261114b565b602082019050919050565b5f6020820190508181035f8301526111ac81611173565b9050919050565b7f4e487b71000000000000000000000000000000000000000000000000000000005f52601160045260245ffd5b5f6111ea82610de3565b91506111f583610de3565b925082820190508082111561120d5761120c6111b3565b5b92915050565b7f63617020686974000000000000000000000000000000000000000000000000005f82015250565b5f611247600783610f74565b915061125282611213565b602082019050919050565b5f6020820190508181035f8301526112748161123b565b9050919050565b7f4e487b71000000000000000000000000000000000000000000000000000000005f52601260045260245ffd5b5f6112b282610de3565b91506112bd83610de3565b9250826112cd576112cc61127b565b5b828206905092915050565b7f6d757374206275792077686f6c6520746f6b656e7300000000000000000000005f82015250565b5f61130c601583610f74565b9150611317826112d8565b602082019050919050565b5f6020820190508181035f83015261133981611300565b9050919050565b5f61134a82610de3565b915061135583610de3565b9250826113655761136461127b565b5b828204905092915050565b5f61137a82610de3565b915061138583610de3565b925082820261139381610de3565b915082820484148315176113aa576113a96111b3565b5b5092915050565b5f6040820190506113c45f830185610ed8565b6113d16020830184610dec565b9392505050565b5f6040820190506113eb5f830185610dec565b6113f86020830184610dec565b939250505056fea26469706673582212204a86ce6278c13e17758f838ad28343004feb304b4c3f9cb375d87f8afd315c3964736f6c634300081e0033","linkReferences":{}},"methodIdentifiers":{"buyTokens()":"d0febe4c","cap()":"355274ea","claimRefund()":"b5545a3c","closingTime()":"4b6753bc","contributions(address)":"42e94c90","finalise()":"a4399263","finalised()":"214bb60f","goal()":"40193883","openingTime()":"b7a8807c","owner()":"8da5cb5b","priceWei()":"b7ec2086","renounceOwnership()":"715018a6","saleOpen()":"99288dbb","token()":"fc0c546a","transferOwnership(address)":"f2fde38b","weiRaised()":"4042b66f"},"id":27}