{"abi":[{"type":"constructor","inputs":[{"name":"initialOwner","type":"address","internalType":"address"}],"stateMutability":"nonpayable"},{"type":"function","name":"balanceOf","inputs":[{"name":"account","type":"address","internalType":"address"},{"name":"id","type":"uint256","internalType":"uint256"}],"outputs":[{"name":"","type":"uint256","internalType":"uint256"}],"stateMutability":"view"},{"type":"function","name":"balanceOfBatch","inputs":[{"name":"accounts","type":"address[]","internalType":"address[]"},{"name":"ids","type":"uint256[]","internalType":"uint256[]"}],"outputs":[{"name":"","type":"uint256[]","internalType":"uint256[]"}],"stateMutability":"view"},{"type":"function","name":"burn","inputs":[{"name":"account","type":"address","internalType":"address"},{"name":"id","type":"uint256","internalType":"uint256"},{"name":"amount","type":"uint256","internalType":"uint256"}],"outputs":[],"stateMutability":"nonpayable"},{"type":"function","name":"exists","inputs":[{"name":"id","type":"uint256","internalType":"uint256"}],"outputs":[{"name":"","type":"bool","internalType":"bool"}],"stateMutability":"view"},{"type":"function","name":"isApprovedForAll","inputs":[{"name":"account","type":"address","internalType":"address"},{"name":"operator","type":"address","internalType":"address"}],"outputs":[{"name":"","type":"bool","internalType":"bool"}],"stateMutability":"view"},{"type":"function","name":"mint","inputs":[{"name":"account","type":"address","internalType":"address"},{"name":"id","type":"uint256","internalType":"uint256"},{"name":"amount","type":"uint256","internalType":"uint256"},{"name":"data","type":"bytes","internalType":"bytes"}],"outputs":[],"stateMutability":"nonpayable"},{"type":"function","name":"owner","inputs":[],"outputs":[{"name":"","type":"address","internalType":"address"}],"stateMutability":"view"},{"type":"function","name":"renounceOwnership","inputs":[],"outputs":[],"stateMutability":"nonpayable"},{"type":"function","name":"safeBatchTransferFrom","inputs":[{"name":"from","type":"address","internalType":"address"},{"name":"to","type":"address","internalType":"address"},{"name":"ids","type":"uint256[]","internalType":"uint256[]"},{"name":"values","type":"uint256[]","internalType":"uint256[]"},{"name":"data","type":"bytes","internalType":"bytes"}],"outputs":[],"stateMutability":"nonpayable"},{"type":"function","name":"safeTransferFrom","inputs":[{"name":"from","type":"address","internalType":"address"},{"name":"to","type":"address","internalType":"address"},{"name":"id","type":"uint256","internalType":"uint256"},{"name":"value","type":"uint256","internalType":"uint256"},{"name":"data","type":"bytes","internalType":"bytes"}],"outputs":[],"stateMutability":"nonpayable"},{"type":"function","name":"setApprovalForAll","inputs":[{"name":"operator","type":"address","internalType":"address"},{"name":"approved","type":"bool","internalType":"bool"}],"outputs":[],"stateMutability":"nonpayable"},{"type":"function","name":"supportsInterface","inputs":[{"name":"interfaceId","type":"bytes4","internalType":"bytes4"}],"outputs":[{"name":"","type":"bool","internalType":"bool"}],"stateMutability":"view"},{"type":"function","name":"totalSupply","inputs":[{"name":"id","type":"uint256","internalType":"uint256"}],"outputs":[{"name":"","type":"uint256","internalType":"uint256"}],"stateMutability":"view"},{"type":"function","name":"transferOwnership","inputs":[{"name":"newOwner","type":"address","internalType":"address"}],"outputs":[],"stateMutability":"nonpayable"},{"type":"function","name":"uri","inputs":[{"name":"","type":"uint256","internalType":"uint256"}],"outputs":[{"name":"","type":"string","internalType":"string"}],"stateMutability":"view"},{"type":"event","name":"ApprovalForAll","inputs":[{"name":"account","type":"address","indexed":true,"internalType":"address"},{"name":"operator","type":"address","indexed":true,"internalType":"address"},{"name":"approved","type":"bool","indexed":false,"internalType":"bool"}],"anonymous":false},{"type":"event","name":"OwnershipTransferred","inputs":[{"name":"previousOwner","type":"address","indexed":true,"internalType":"address"},{"name":"newOwner","type":"address","indexed":true,"internalType":"address"}],"anonymous":false},{"type":"event","name":"TokenBurned","inputs":[{"name":"from","type":"address","indexed":true,"internalType":"address"},{"name":"id","type":"uint256","indexed":false,"internalType":"uint256"},{"name":"amount","type":"uint256","indexed":false,"internalType":"uint256"}],"anonymous":false},{"type":"event","name":"TokenMinted","inputs":[{"name":"to","type":"address","indexed":true,"internalType":"address"},{"name":"id","type":"uint256","indexed":false,"internalType":"uint256"},{"name":"amount","type":"uint256","indexed":false,"internalType":"uint256"}],"anonymous":false},{"type":"event","name":"TransferBatch","inputs":[{"name":"operator","type":"address","indexed":true,"internalType":"address"},{"name":"from","type":"address","indexed":true,"internalType":"address"},{"name":"to","type":"address","indexed":true,"internalType":"address"},{"name":"ids","type":"uint256[]","indexed":false,"internalType":"uint256[]"},{"name":"values","type":"uint256[]","indexed":false,"internalType":"uint256[]"}],"anonymous":false},{"type":"event","name":"TransferSingle","inputs":[{"name":"operator","type":"address","indexed":true,"internalType":"address"},{"name":"from","type":"address","indexed":true,"internalType":"address"},{"name":"to","type":"address","indexed":true,"internalType":"address"},{"name":"id","type":"uint256","indexed":false,"internalType":"uint256"},{"name":"value","type":"uint256","indexed":false,"internalType":"uint256"}],"anonymous":false},{"type":"event","name":"URI","inputs":[{"name":"value","type":"string","indexed":false,"internalType":"string"},{"name":"id","type":"uint256","indexed":true,"internalType":"uint256"}],"anonymous":false},{"type":"error","name":"ERC1155InsufficientBalance","inputs":[{"name":"sender","type":"address","internalType":"address"},{"name":"balance","type":"uint256","internalType":"uint256"},{"name":"needed","type":"uint256","internalType":"uint256"},{"name":"tokenId","type":"uint256","internalType":"uint256"}]},{"type":"error","name":"ERC1155InvalidApprover","inputs":[{"name":"approver","type":"address","internalType":"address"}]},{"type":"error","name":"ERC1155InvalidArrayLength","inputs":[{"name":"idsLength","type":"uint256","internalType":"uint256"},{"name":"valuesLength","type":"uint256","internalType":"uint256"}]},{"type":"error","name":"ERC1155InvalidOperator","inputs":[{"name":"operator","type":"address","internalType":"address"}]},{"type":"error","name":"ERC1155InvalidReceiver","inputs":[{"name":"receiver","type":"address","internalType":"address"}]},{"type":"error","name":"ERC1155InvalidSender","inputs":[{"name":"sender","type":"address","internalType":"address"}]},{"type":"error","name":"ERC1155MissingApprovalForAll","inputs":[{"name":"operator","type":"address","internalType":"address"},{"name":"owner","type":"address","internalType":"address"}]},{"type":"error","name":"OwnableInvalidOwner","inputs":[{"name":"owner","type":"address","internalType":"address"}]},{"type":"error","name":"OwnableUnauthorizedAccount","inputs":[{"name":"account","type":"address","internalType":"address"}]}],"bytecode":{"object":"0x608060405234801561000f575f5ffd5b50604051612b95380380612b9583398181016040528101906100319190610215565b80604051806060016040528060248152602001612b716024913961005a816100e160201b60201c565b505f73ffffffffffffffffffffffffffffffffffffffff168173ffffffffffffffffffffffffffffffffffffffff16036100cb575f6040517f1e4fbdf70000000000000000000000000000000000000000000000000000000081526004016100c2919061024f565b60405180910390fd5b6100da816100f460201b60201c565b5050610574565b80600290816100f091906104a5565b5050565b5f60035f9054906101000a900473ffffffffffffffffffffffffffffffffffffffff1690508160035f6101000a81548173ffffffffffffffffffffffffffffffffffffffff021916908373ffffffffffffffffffffffffffffffffffffffff1602179055508173ffffffffffffffffffffffffffffffffffffffff168173ffffffffffffffffffffffffffffffffffffffff167f8be0079c531659141344cd1fd0a4f28419497f9722a3daafe3b4186f6b6457e060405160405180910390a35050565b5f5ffd5b5f73ffffffffffffffffffffffffffffffffffffffff82169050919050565b5f6101e4826101bb565b9050919050565b6101f4816101da565b81146101fe575f5ffd5b50565b5f8151905061020f816101eb565b92915050565b5f6020828403121561022a576102296101b7565b5b5f61023784828501610201565b91505092915050565b610249816101da565b82525050565b5f6020820190506102625f830184610240565b92915050565b5f81519050919050565b7f4e487b71000000000000000000000000000000000000000000000000000000005f52604160045260245ffd5b7f4e487b71000000000000000000000000000000000000000000000000000000005f52602260045260245ffd5b5f60028204905060018216806102e357607f821691505b6020821081036102f6576102f561029f565b5b50919050565b5f819050815f5260205f209050919050565b5f6020601f8301049050919050565b5f82821b905092915050565b5f600883026103587fffffffffffffffffffffffffffffffffffffffffffffffffffffffffffffffff8261031d565b610362868361031d565b95508019841693508086168417925050509392505050565b5f819050919050565b5f819050919050565b5f6103a66103a161039c8461037a565b610383565b61037a565b9050919050565b5f819050919050565b6103bf8361038c565b6103d36103cb826103ad565b848454610329565b825550505050565b5f5f905090565b6103ea6103db565b6103f58184846103b6565b505050565b5b818110156104185761040d5f826103e2565b6001810190506103fb565b5050565b601f82111561045d5761042e816102fc565b6104378461030e565b81016020851015610446578190505b61045a6104528561030e565b8301826103fa565b50505b505050565b5f82821c905092915050565b5f61047d5f1984600802610462565b1980831691505092915050565b5f610495838361046e565b9150826002028217905092915050565b6104ae82610268565b67ffffffffffffffff8111156104c7576104c6610272565b5b6104d182546102cc565b6104dc82828561041c565b5f60209050601f83116001811461050d575f84156104fb578287015190505b610505858261048a565b86555061056c565b601f19841661051b866102fc565b5f5b828110156105425784890151825560018201915060208501945060208101905061051d565b8683101561055f578489015161055b601f89168261046e565b8355505b6001600288020188555050505b505050505050565b6125f0806105815f395ff3fe608060405234801561000f575f5ffd5b50600436106100f2575f3560e01c8063731133e911610095578063e985e9c511610064578063e985e9c514610292578063f242432a146102c2578063f2fde38b146102de578063f5298aca146102fa576100f2565b8063731133e91461020c5780638da5cb5b14610228578063a22cb46514610246578063bd85b03914610262576100f2565b80632eb2c2d6116100d15780632eb2c2d6146101865780634e1273f4146101a25780634f558e79146101d2578063715018a614610202576100f2565b8062fdd58e146100f657806301ffc9a7146101265780630e89341c14610156575b5f5ffd5b610110600480360381019061010b9190611928565b610316565b60405161011d9190611975565b60405180910390f35b610140600480360381019061013b91906119e3565b61036b565b60405161014d9190611a28565b60405180910390f35b610170600480360381019061016b9190611a41565b61044c565b60405161017d9190611adc565b60405180910390f35b6101a0600480360381019061019b9190611cec565b6104de565b005b6101bc60048036038101906101b79190611e77565b610585565b6040516101c99190611fa4565b60405180910390f35b6101ec60048036038101906101e79190611a41565b61068f565b6040516101f99190611a28565b60405180910390f35b61020a6106ab565b005b61022660048036038101906102219190611fc4565b6106be565b005b61023061074f565b60405161023d9190612053565b60405180910390f35b610260600480360381019061025b9190612096565b610777565b005b61027c60048036038101906102779190611a41565b61078d565b6040516102899190611975565b60405180910390f35b6102ac60048036038101906102a791906120d4565b6107a7565b6040516102b99190611a28565b60405180910390f35b6102dc60048036038101906102d79190612112565b610835565b005b6102f860048036038101906102f391906121a5565b6108dc565b005b610314600480360381019061030f91906121d0565b610960565b005b5f5f5f8381526020019081526020015f205f8473ffffffffffffffffffffffffffffffffffffffff1673ffffffffffffffffffffffffffffffffffffffff1681526020019081526020015f2054905092915050565b5f7fd9b67a26000000000000000000000000000000000000000000000000000000007bffffffffffffffffffffffffffffffffffffffffffffffffffffffff1916827bffffffffffffffffffffffffffffffffffffffffffffffffffffffff1916148061043557507f0e89341c000000000000000000000000000000000000000000000000000000007bffffffffffffffffffffffffffffffffffffffffffffffffffffffff1916827bffffffffffffffffffffffffffffffffffffffffffffffffffffffff1916145b80610445575061044482610a43565b5b9050919050565b60606002805461045b9061224d565b80601f01602080910402602001604051908101604052809291908181526020018280546104879061224d565b80156104d25780601f106104a9576101008083540402835291602001916104d2565b820191905f5260205f20905b8154815290600101906020018083116104b557829003601f168201915b50505050509050919050565b5f6104e7610aac565b90508073ffffffffffffffffffffffffffffffffffffffff168673ffffffffffffffffffffffffffffffffffffffff161415801561052c575061052a86826107a7565b155b156105705780866040517fe237d92200000000000000000000000000000000000000000000000000000000815260040161056792919061227d565b60405180910390fd5b61057d8686868686610ab3565b505050505050565b606081518351146105d157815183516040517f5b0599910000000000000000000000000000000000000000000000000000000081526004016105c89291906122a4565b60405180910390fd5b5f835167ffffffffffffffff8111156105ed576105ec611b00565b5b60405190808252806020026020018201604052801561061b5781602001602082028036833780820191505090505b5090505f5f90505b84518110156106845761065a6106428287610ba790919063ffffffff16565b6106558387610bba90919063ffffffff16565b610316565b82828151811061066d5761066c6122cb565b5b602002602001018181525050806001019050610623565b508091505092915050565b5f5f60045f8481526020019081526020015f2054119050919050565b6106b3610bcd565b6106bc5f610c54565b565b6106c6610bcd565b6106d284848484610d17565b8160045f8581526020019081526020015f205f8282546106f29190612325565b925050819055508373ffffffffffffffffffffffffffffffffffffffff167f96234cb3d6c373a1aaa06497a540bc166d4b0359243a088eaf95e21d7253d0be84846040516107419291906122a4565b60405180910390a250505050565b5f60035f9054906101000a900473ffffffffffffffffffffffffffffffffffffffff16905090565b610789610782610aac565b8383610dac565b5050565b5f60045f8381526020019081526020015f20549050919050565b5f60015f8473ffffffffffffffffffffffffffffffffffffffff1673ffffffffffffffffffffffffffffffffffffffff1681526020019081526020015f205f8373ffffffffffffffffffffffffffffffffffffffff1673ffffffffffffffffffffffffffffffffffffffff1681526020019081526020015f205f9054906101000a900460ff16905092915050565b5f61083e610aac565b90508073ffffffffffffffffffffffffffffffffffffffff168673ffffffffffffffffffffffffffffffffffffffff1614158015610883575061088186826107a7565b155b156108c75780866040517fe237d9220000000000000000000000000000000000000000000000000000000081526004016108be92919061227d565b60405180910390fd5b6108d48686868686610f15565b505050505050565b6108e4610bcd565b5f73ffffffffffffffffffffffffffffffffffffffff168173ffffffffffffffffffffffffffffffffffffffff1603610954575f6040517f1e4fbdf700000000000000000000000000000000000000000000000000000000815260040161094b9190612053565b60405180910390fd5b61095d81610c54565b50565b610968610bcd565b8060045f8481526020019081526020015f205410156109bc576040517f08c379a00000000000000000000000000000000000000000000000000000000081526004016109b3906123a2565b60405180910390fd5b6109c783838361101b565b8060045f8481526020019081526020015f205f8282546109e791906123c0565b925050819055508273ffffffffffffffffffffffffffffffffffffffff167fde3ca466246b0da455138dbea78dacd91d3c40dc98d5846ff0193bf67c24b0e78383604051610a369291906122a4565b60405180910390a2505050565b5f7f01ffc9a7000000000000000000000000000000000000000000000000000000007bffffffffffffffffffffffffffffffffffffffffffffffffffffffff1916827bffffffffffffffffffffffffffffffffffffffffffffffffffffffff1916149050919050565b5f33905090565b5f73ffffffffffffffffffffffffffffffffffffffff168473ffffffffffffffffffffffffffffffffffffffff1603610b23575f6040517f57f447ce000000000000000000000000000000000000000000000000000000008152600401610b1a9190612053565b60405180910390fd5b5f73ffffffffffffffffffffffffffffffffffffffff168573ffffffffffffffffffffffffffffffffffffffff1603610b93575f6040517f01a83514000000000000000000000000000000000000000000000000000000008152600401610b8a9190612053565b60405180910390fd5b610ba085858585856110bd565b5050505050565b5f60208202602084010151905092915050565b5f60208202602084010151905092915050565b610bd5610aac565b73ffffffffffffffffffffffffffffffffffffffff16610bf361074f565b73ffffffffffffffffffffffffffffffffffffffff1614610c5257610c16610aac565b6040517f118cdaa7000000000000000000000000000000000000000000000000000000008152600401610c499190612053565b60405180910390fd5b565b5f60035f9054906101000a900473ffffffffffffffffffffffffffffffffffffffff1690508160035f6101000a81548173ffffffffffffffffffffffffffffffffffffffff021916908373ffffffffffffffffffffffffffffffffffffffff1602179055508173ffffffffffffffffffffffffffffffffffffffff168173ffffffffffffffffffffffffffffffffffffffff167f8be0079c531659141344cd1fd0a4f28419497f9722a3daafe3b4186f6b6457e060405160405180910390a35050565b5f73ffffffffffffffffffffffffffffffffffffffff168473ffffffffffffffffffffffffffffffffffffffff1603610d87575f6040517f57f447ce000000000000000000000000000000000000000000000000000000008152600401610d7e9190612053565b60405180910390fd5b5f5f610d938585611169565b91509150610da45f878484876110bd565b505050505050565b5f73ffffffffffffffffffffffffffffffffffffffff168273ffffffffffffffffffffffffffffffffffffffff1603610e1c575f6040517fced3e100000000000000000000000000000000000000000000000000000000008152600401610e139190612053565b60405180910390fd5b8060015f8573ffffffffffffffffffffffffffffffffffffffff1673ffffffffffffffffffffffffffffffffffffffff1681526020019081526020015f205f8473ffffffffffffffffffffffffffffffffffffffff1673ffffffffffffffffffffffffffffffffffffffff1681526020019081526020015f205f6101000a81548160ff0219169083151502179055508173ffffffffffffffffffffffffffffffffffffffff168373ffffffffffffffffffffffffffffffffffffffff167f17307eab39ab6107e8899845ad3d59bd9653f200f220920489ca2b5937696c3183604051610f089190611a28565b60405180910390a3505050565b5f73ffffffffffffffffffffffffffffffffffffffff168473ffffffffffffffffffffffffffffffffffffffff1603610f85575f6040517f57f447ce000000000000000000000000000000000000000000000000000000008152600401610f7c9190612053565b60405180910390fd5b5f73ffffffffffffffffffffffffffffffffffffffff168573ffffffffffffffffffffffffffffffffffffffff1603610ff5575f6040517f01a83514000000000000000000000000000000000000000000000000000000008152600401610fec9190612053565b60405180910390fd5b5f5f6110018585611169565b9150915061101287878484876110bd565b50505050505050565b5f73ffffffffffffffffffffffffffffffffffffffff168373ffffffffffffffffffffffffffffffffffffffff160361108b575f6040517f01a835140000000000000000000000000000000000000000000000000000000081526004016110829190612053565b60405180910390fd5b5f5f6110978484611169565b915091506110b6855f848460405180602001604052805f8152506110bd565b5050505050565b6110c985858585611199565b5f73ffffffffffffffffffffffffffffffffffffffff168473ffffffffffffffffffffffffffffffffffffffff1614611162575f611105610aac565b90506001845103611151575f6111245f86610bba90919063ffffffff16565b90505f61113a5f86610bba90919063ffffffff16565b905061114a83898985858961152c565b5050611160565b61115f8187878787876116db565b5b505b5050505050565b60608060405191506001825283602083015260408201905060018152826020820152604081016040529250929050565b80518251146111e357815181516040517f5b0599910000000000000000000000000000000000000000000000000000000081526004016111da9291906122a4565b60405180910390fd5b5f6111ec610aac565b90505f5f90505b83518110156113eb575f6112108286610bba90919063ffffffff16565b90505f6112268386610bba90919063ffffffff16565b90505f73ffffffffffffffffffffffffffffffffffffffff168873ffffffffffffffffffffffffffffffffffffffff1614611349575f5f5f8481526020019081526020015f205f8a73ffffffffffffffffffffffffffffffffffffffff1673ffffffffffffffffffffffffffffffffffffffff1681526020019081526020015f20549050818110156112f557888183856040517f03dee4c50000000000000000000000000000000000000000000000000000000081526004016112ec94939291906123f3565b60405180910390fd5b8181035f5f8581526020019081526020015f205f8b73ffffffffffffffffffffffffffffffffffffffff1673ffffffffffffffffffffffffffffffffffffffff1681526020019081526020015f2081905550505b5f73ffffffffffffffffffffffffffffffffffffffff168773ffffffffffffffffffffffffffffffffffffffff16146113de57805f5f8481526020019081526020015f205f8973ffffffffffffffffffffffffffffffffffffffff1673ffffffffffffffffffffffffffffffffffffffff1681526020019081526020015f205f8282546113d69190612325565b925050819055505b50508060010190506111f3565b5060018351036114a6575f6114095f85610bba90919063ffffffff16565b90505f61141f5f85610bba90919063ffffffff16565b90508573ffffffffffffffffffffffffffffffffffffffff168773ffffffffffffffffffffffffffffffffffffffff168473ffffffffffffffffffffffffffffffffffffffff167fc3d58168c5ae7397731d063d5bbf3d657854427343f4c083240f7aacaa2d0f6285856040516114979291906122a4565b60405180910390a45050611525565b8373ffffffffffffffffffffffffffffffffffffffff168573ffffffffffffffffffffffffffffffffffffffff168273ffffffffffffffffffffffffffffffffffffffff167f4a39dc06d4c0dbc64b70af90fd698a233a518aa5d07e595d983b8c0526c8f7fb868660405161151c929190612436565b60405180910390a45b5050505050565b5f8473ffffffffffffffffffffffffffffffffffffffff163b11156116d3578373ffffffffffffffffffffffffffffffffffffffff1663f23a6e6187878686866040518663ffffffff1660e01b815260040161158c9594939291906124bd565b6020604051808303815f875af19250505080156115c757506040513d601f19601f820116820180604052508101906115c49190612529565b60015b611648573d805f81146115f5576040519150601f19603f3d011682016040523d82523d5f602084013e6115fa565b606091505b505f81510361164057846040517f57f447ce0000000000000000000000000000000000000000000000000000000081526004016116379190612053565b60405180910390fd5b805160208201fd5b63f23a6e6160e01b7bffffffffffffffffffffffffffffffffffffffffffffffffffffffff1916817bffffffffffffffffffffffffffffffffffffffffffffffffffffffff1916146116d157846040517f57f447ce0000000000000000000000000000000000000000000000000000000081526004016116c89190612053565b60405180910390fd5b505b505050505050565b5f8473ffffffffffffffffffffffffffffffffffffffff163b1115611882578373ffffffffffffffffffffffffffffffffffffffff1663bc197c8187878686866040518663ffffffff1660e01b815260040161173b959493929190612554565b6020604051808303815f875af192505050801561177657506040513d601f19601f820116820180604052508101906117739190612529565b60015b6117f7573d805f81146117a4576040519150601f19603f3d011682016040523d82523d5f602084013e6117a9565b606091505b505f8151036117ef57846040517f57f447ce0000000000000000000000000000000000000000000000000000000081526004016117e69190612053565b60405180910390fd5b805160208201fd5b63bc197c8160e01b7bffffffffffffffffffffffffffffffffffffffffffffffffffffffff1916817bffffffffffffffffffffffffffffffffffffffffffffffffffffffff19161461188057846040517f57f447ce0000000000000000000000000000000000000000000000000000000081526004016118779190612053565b60405180910390fd5b505b505050505050565b5f604051905090565b5f5ffd5b5f5ffd5b5f73ffffffffffffffffffffffffffffffffffffffff82169050919050565b5f6118c48261189b565b9050919050565b6118d4816118ba565b81146118de575f5ffd5b50565b5f813590506118ef816118cb565b92915050565b5f819050919050565b611907816118f5565b8114611911575f5ffd5b50565b5f81359050611922816118fe565b92915050565b5f5f6040838503121561193e5761193d611893565b5b5f61194b858286016118e1565b925050602061195c85828601611914565b9150509250929050565b61196f816118f5565b82525050565b5f6020820190506119885f830184611966565b92915050565b5f7fffffffff0000000000000000000000000000000000000000000000000000000082169050919050565b6119c28161198e565b81146119cc575f5ffd5b50565b5f813590506119dd816119b9565b92915050565b5f602082840312156119f8576119f7611893565b5b5f611a05848285016119cf565b91505092915050565b5f8115159050919050565b611a2281611a0e565b82525050565b5f602082019050611a3b5f830184611a19565b92915050565b5f60208284031215611a5657611a55611893565b5b5f611a6384828501611914565b91505092915050565b5f81519050919050565b5f82825260208201905092915050565b8281835e5f83830152505050565b5f601f19601f8301169050919050565b5f611aae82611a6c565b611ab88185611a76565b9350611ac8818560208601611a86565b611ad181611a94565b840191505092915050565b5f6020820190508181035f830152611af48184611aa4565b905092915050565b5f5ffd5b7f4e487b71000000000000000000000000000000000000000000000000000000005f52604160045260245ffd5b611b3682611a94565b810181811067ffffffffffffffff82111715611b5557611b54611b00565b5b80604052505050565b5f611b6761188a565b9050611b738282611b2d565b919050565b5f67ffffffffffffffff821115611b9257611b91611b00565b5b602082029050602081019050919050565b5f5ffd5b5f611bb9611bb484611b78565b611b5e565b90508083825260208201905060208402830185811115611bdc57611bdb611ba3565b5b835b81811015611c055780611bf18882611914565b845260208401935050602081019050611bde565b5050509392505050565b5f82601f830112611c2357611c22611afc565b5b8135611c33848260208601611ba7565b91505092915050565b5f5ffd5b5f67ffffffffffffffff821115611c5a57611c59611b00565b5b611c6382611a94565b9050602081019050919050565b828183375f83830152505050565b5f611c90611c8b84611c40565b611b5e565b905082815260208101848484011115611cac57611cab611c3c565b5b611cb7848285611c70565b509392505050565b5f82601f830112611cd357611cd2611afc565b5b8135611ce3848260208601611c7e565b91505092915050565b5f5f5f5f5f60a08688031215611d0557611d04611893565b5b5f611d12888289016118e1565b9550506020611d23888289016118e1565b945050604086013567ffffffffffffffff811115611d4457611d43611897565b5b611d5088828901611c0f565b935050606086013567ffffffffffffffff811115611d7157611d70611897565b5b611d7d88828901611c0f565b925050608086013567ffffffffffffffff811115611d9e57611d9d611897565b5b611daa88828901611cbf565b9150509295509295909350565b5f67ffffffffffffffff821115611dd157611dd0611b00565b5b602082029050602081019050919050565b5f611df4611def84611db7565b611b5e565b90508083825260208201905060208402830185811115611e1757611e16611ba3565b5b835b81811015611e405780611e2c88826118e1565b845260208401935050602081019050611e19565b5050509392505050565b5f82601f830112611e5e57611e5d611afc565b5b8135611e6e848260208601611de2565b91505092915050565b5f5f60408385031215611e8d57611e8c611893565b5b5f83013567ffffffffffffffff811115611eaa57611ea9611897565b5b611eb685828601611e4a565b925050602083013567ffffffffffffffff811115611ed757611ed6611897565b5b611ee385828601611c0f565b9150509250929050565b5f81519050919050565b5f82825260208201905092915050565b5f819050602082019050919050565b611f1f816118f5565b82525050565b5f611f308383611f16565b60208301905092915050565b5f602082019050919050565b5f611f5282611eed565b611f5c8185611ef7565b9350611f6783611f07565b805f5b83811015611f97578151611f7e8882611f25565b9750611f8983611f3c565b925050600181019050611f6a565b5085935050505092915050565b5f6020820190508181035f830152611fbc8184611f48565b905092915050565b5f5f5f5f60808587031215611fdc57611fdb611893565b5b5f611fe9878288016118e1565b9450506020611ffa87828801611914565b935050604061200b87828801611914565b925050606085013567ffffffffffffffff81111561202c5761202b611897565b5b61203887828801611cbf565b91505092959194509250565b61204d816118ba565b82525050565b5f6020820190506120665f830184612044565b92915050565b61207581611a0e565b811461207f575f5ffd5b50565b5f813590506120908161206c565b92915050565b5f5f604083850312156120ac576120ab611893565b5b5f6120b9858286016118e1565b92505060206120ca85828601612082565b9150509250929050565b5f5f604083850312156120ea576120e9611893565b5b5f6120f7858286016118e1565b9250506020612108858286016118e1565b9150509250929050565b5f5f5f5f5f60a0868803121561212b5761212a611893565b5b5f612138888289016118e1565b9550506020612149888289016118e1565b945050604061215a88828901611914565b935050606061216b88828901611914565b925050608086013567ffffffffffffffff81111561218c5761218b611897565b5b61219888828901611cbf565b9150509295509295909350565b5f602082840312156121ba576121b9611893565b5b5f6121c7848285016118e1565b91505092915050565b5f5f5f606084860312156121e7576121e6611893565b5b5f6121f4868287016118e1565b935050602061220586828701611914565b925050604061221686828701611914565b9150509250925092565b7f4e487b71000000000000000000000000000000000000000000000000000000005f52602260045260245ffd5b5f600282049050600182168061226457607f821691505b60208210810361227757612276612220565b5b50919050565b5f6040820190506122905f830185612044565b61229d6020830184612044565b9392505050565b5f6040820190506122b75f830185611966565b6122c46020830184611966565b9392505050565b7f4e487b71000000000000000000000000000000000000000000000000000000005f52603260045260245ffd5b7f4e487b71000000000000000000000000000000000000000000000000000000005f52601160045260245ffd5b5f61232f826118f5565b915061233a836118f5565b9250828201905080821115612352576123516122f8565b5b92915050565b7f4275726e206578636565647320737570706c79000000000000000000000000005f82015250565b5f61238c601383611a76565b915061239782612358565b602082019050919050565b5f6020820190508181035f8301526123b981612380565b9050919050565b5f6123ca826118f5565b91506123d5836118f5565b92508282039050818111156123ed576123ec6122f8565b5b92915050565b5f6080820190506124065f830187612044565b6124136020830186611966565b6124206040830185611966565b61242d6060830184611966565b95945050505050565b5f6040820190508181035f83015261244e8185611f48565b905081810360208301526124628184611f48565b90509392505050565b5f81519050919050565b5f82825260208201905092915050565b5f61248f8261246b565b6124998185612475565b93506124a9818560208601611a86565b6124b281611a94565b840191505092915050565b5f60a0820190506124d05f830188612044565b6124dd6020830187612044565b6124ea6040830186611966565b6124f76060830185611966565b81810360808301526125098184612485565b90509695505050505050565b5f81519050612523816119b9565b92915050565b5f6020828403121561253e5761253d611893565b5b5f61254b84828501612515565b91505092915050565b5f60a0820190506125675f830188612044565b6125746020830187612044565b81810360408301526125868186611f48565b9050818103606083015261259a8185611f48565b905081810360808301526125ae8184612485565b9050969550505050505056fea264697066735822122093e3aafff68063427dc2cbc2e5103f98cd12132fe2ee26491734d4f13523698264736f6c634300081e003368747470733a2f2f6d796170692e636f6d2f6170692f6974656d2f7b69647d2e6a736f6e","linkReferences":{}},"methodIdentifiers":{"balanceOf(address,uint256)":"00fdd58e","balanceOfBatch(address[],uint256[])":"4e1273f4","burn(address,uint256,uint256)":"f5298aca","exists(uint256)":"4f558e79","isApprovedForAll(address,address)":"e985e9c5","mint(address,uint256,uint256,bytes)":"731133e9","owner()":"8da5cb5b","renounceOwnership()":"715018a6","safeBatchTransferFrom(address,address,uint256[],uint256[],bytes)":"2eb2c2d6","safeTransferFrom(address,address,uint256,uint256,bytes)":"f242432a","setApprovalForAll(address,bool)":"a22cb465","supportsInterface(bytes4)":"01ffc9a7","totalSupply(uint256)":"bd85b039","transferOwnership(address)":"f2fde38b","uri(uint256)":"0e89341c"},"id":34}